:02000002D0002C
:1040000000400D0084530D00000006000C00050167
:084010000401BD0B00000000DB
:0440180040510D0006
:10401C0009480A49884208B505D0094A824202D0AB
:10402C00121A01F045F80748074A0021121A01F04C
:10403C004DF8014808BD00BFB8E50320F4520D004F
:10404C0020E6032020E60320F0E7032070B5074E9E
:10405C00074C00F083FCA41BA4080025A54200D14A
:10406C0070BD56F8043B98470135F7E7C8520D0070
:10407C00EC520D0000F03CB808B500F05BF8BDE860
:10408C00084000F02DBC00F085BA00F08BBA007827
:10409C00B0FA80F0400970470123037070470000AC
:1040AC0010B1024B01221A70704700BF30E603209A
:1040BC0010B50446006808B100F074FA204610BD33
:1040CC0010B5094C2378BFF35B8FDB070AD420466D
:1040DC00FFF7DDFF30B10548012100F0B7FA2046AB
:1040EC00FFF7DAFF014810BD24E6032028E6032081
:1040FC0008B50121072000F045FF0021052000F044
:10410C0041FFFFF7DDFF012100F0C0FAFFF7D8FFF8
:10411C00002100F0CEFAFFF7D3FF054900F0EFFACB
:10412C00FFF7CEFFBDE808400622012100F098BA47
:10413C00AD400D0037B5174B1A784AB3164C002515
:10414C001D70FFF7BDFF012314490095224600F0B6
:10415C00C3FA2378302B03D12946072000F023FF24
:10416C002378312B03D10121072000F01CFF237889
:10417C003F2B0DD1052000F02FFF084C2070FFF7CE
:10418C009FFF00230093044A0123214600F0A4FA68
:10419C0003B030BD30E6032040E6032041E60320A7
:1041AC0038B50A4C0A4BA360002503202560A58076
:1041BC00A57100F063F90749074A204600F060FF3B
:1041CC0029460120BDE8384000F060B934E60320F0
:1041DC000000FFFFBD400D0020E6032008B5024B98
:1041EC001B689B68019308BD6802030008B5024B6D
:1041FC001B68DB68019308BD6802030008B5024B1D
:10420C001B689B68019308BD2C02030008B5024B88
:10421C001B68DB68019308BD2C02030008B5024B38
:10422C001B681B69019308BD2C02030008B5024BE7
:10423C001B685B69019308BD2C02030008B5024B97
:10424C001B685B68019308BD1802030008B5024B9C
:10425C001B685B69019308BD1802030008B5024B8B
:10426C001B685B6C019308BD4802030008B5024B48
:10427C001B689B6C019308BD4802030008B5024BF8
:10428C001B685B69019308BD6402030008B5024B0F
:10429C001B681B68019308BD3C02030008B5024B68
:1042AC001B68DB68019308BD3C02030008B5024B98
:1042BC001B681B69019308BD3C02030008B5024B47
:1042CC001B685B69019308BD3C02030008B5024BF7
:1042DC001B689B69019308BD3C02030008B5024BA7
:1042EC001B68DB69019308BD3C02030008B5024B57
:1042FC001B681B6A019308BD3C02030008B5024B06
:10430C001B689B6A019308BD3C02030008B5024B75
:10431C001B681B6A019308BD2802030008B5024BF9
:10432C001B685B6A019308BD2802030008B5024BA9
:10433C001B689B6A019308BD2802030008B5024B59
:10434C001B68DB6A019308BD2802030008B5024B09
:10435C001B681B6B019308BD2802030008B5024BB8
:10436C001B685B6B019308BD2802030008B5024B68
:10437C001B681B6C019308BD2802030008B5024B97
:10438C001B689B68019308BD3002030008B5024B03
:10439C001B68DB68019308BD3002030008B5024BB3
:1043AC001B68DB69019308BD3002030008B5024BA2
:1043BC001B681B6A019308BD3002030008B5024B51
:1043CC001B689B6A019308BD3002030008B5024BC1
:1043DC001B68DB6A019308BD3002030008B5024B71
:1043EC001B681B6B019308BD3002030008B5024B20
:1043FC001B689B6B019308BD3002030008B5024B90
:10440C001B681B6C019308BD3002030008B5024BFE
:10441C001B685B6C019308BD3002030008B5024BAE
:10442C001B681B68019308BD4C02030008B5024BC6
:10443C001B681B69019308BD4C02030008B5024BB5
:10444C001B685B69019308BD4C02030008B5024B65
:10445C001B689B69019308BD4C02030008B5024B15
:10446C001B68DB69019308BD4C02030008B5024BC5
:10447C001B681B6A019308BD4C02030008B5024B74
:10448C001B685B68019308BD2002030008B5024B52
:10449C001B68DB6A019308BD2002030008B5034BBF
:1044AC001B68D3F88830019308BD0000200203007C
:1044BC0008B5034B1B68D3F89430019308BD00007A
:1044CC002002030008B5024B1B685B68019308BD12
:1044DC004002030008B5024B1B689B68019308BDA2
:1044EC004002030008B5024B1B68DB68019308BD52
:1044FC004002030008B5024B1B681B69019308BD01
:10450C004002030008B5024B1B685B69019308BDB0
:10451C004002030008B5024B1B689B69019308BD60
:10452C004002030008B5024B1B68DB69019308BD10
:10453C004002030008B5024B1B681B6A019308BDBF
:10454C004002030008B5024B1B681B6B019308BDAE
:10455C004002030008B5024B1B685B6B019308BD5E
:10456C004002030008B5024B1B681B6C019308BD8D
:10457C004002030008B5024B1B685B6C019308BD3D
:10458C004002030008B5024B1B68DB6B019308BDAE
:10459C004402030008B5024B1B681B68019308BD5D
:1045AC001C02030008B5024B1B685B68019308BD35
:1045BC001C02030008B5024B1B685B6C019308BD21
:1045CC001C020300002240681146FFF7B3BF002213
:1045DC0040681146FFF7BEBF40680022FFF7B2BF2C
:1045EC004068002281F00101FFF79CBF0023406866
:1045FC001A461946FFF78EBF002340681A46194623
:10460C00FFF780BF002240681146FFF773BF0022FE
:10461C0040681146FFF75EBF406800220221FFF799
:10462C0061BF002340681A46FFF74CBF024B0322C0
:10463C005A60024A1A60704744E603205C510D0030
:10464C000021FFF7DBBE0021FFF7E0BE10B50446EA
:10465C0008462170FFF7A2FE00236360204610BDC0
:10466C0013B504460078CDE90021FFF7E9FFDDE939
:10467C000021034640B92078FFF7A8FE207802B04D
:10468C00BDE81040FFF7DFBF02B010BD13B5044604
:10469C0000780191FFF7D4FF019940B92078FFF71A
:1046AC006DFE207802B0BDE81040FFF7CCBF02B021
:1046BC0010BD13B5044600780191FFF7C1FF0199B5
:1046CC0040B92078FFF762FE207802B0BDE81040B8
:1046DC00FFF7B9BF02B010BD30B587B004460A9DD4
:1046EC0000950078FFF76AFE3DB9207802A9FFF724
:1046FC007DFE9DF81430DB07F7D407B030BD13B541
:10470C00044600780191FFF79BFF0199024640B9DE
:10471C002078FFF763FE207802B0BDE81040FFF769
:10472C0092BF02B010BD000010B5094B094C02221B
:10473C0000201A60084B2060A080A071A360FFF7D6
:10474C009DFE2046054A0649BDE8104000F098BC85
:10475C0058E603204CE603200000FFFF20E6032070
:10476C00BD400D0010B50446006808B1FFF77EFD92
:10477C00204610BD10B58368044613B103220146D0
:10478C009847204610BD000010B5064C002320466B
:10479C002360FFF763FD2046034A0449BDE810403F
:1047AC0000F06EBC5CE6032020E6032071470D0090
:1047BC00F8B506460D468F180024BD420CD0336860
:1047CC0015F8011B9B6830469847031E01DB1C44FF
:1047DC00F3E7002C08BF1C462046F8BD13B5044671
:1047EC00084659B1019100F09DFC23680199DB68E2
:1047FC000246204602B0BDE81040184702B010BD7A
:10480C0003689B68184730B58BB000238DF82430B3
:10481C00012A98BF0A2209AC0D46B1FBF2F101FB4B
:10482C00125303F0FF03092B94BF30333733DBB241
:10483C00AA4204F8013DEFD92146FFF7CFFF0BB098
:10484C0030BD002340681A461946FFF75BBE0000D6
:10485C00014B024A1A60704760E6032090510D002C
:10486C00024B1A68024B1A60704700BFB8E5032070
:10487C0064E6032010B50446FFF77CFF204610BD0C
:10488C000348044A04490023836000F0F9BB00BFCD
:10489C0068E6032020E6032081480D00014B1860D8
:1048AC00704700BFBCE5032008B50B4B43B100F0CB
:1048BC0057F903681B699847002801DDAFF30080A6
:1048CC00064B43B100F0CAF903681B6998470028EE
:1048DC0001DDAFF3008008BD000000000000000007
:1048EC0008B5FFF7E1FFFFF7B1FC014B186008BDFD
:1048FC00D4E703200248034A0349121A00F0D8BB3C
:10490C0000F4032004F40320F0520D0007B500233B
:10491C0000931A466FF07701FFF7CAFD03B05DF8FC
:10492C0004FB000007B543880A2B08D0502B0BD191
:10493C00094B1B684BB103B05DF804EB1847FFF74C
:10494C00E5FF03B05DF804FB002300931A466FF0FB
:10495C007701FFF7ADFDF4E77CE6032038B5124C88
:10496C001248134D0021FFF725FE2368AB42114B73
:10497C000CBF012200221A7002D0FFF7BBFF25608A
:10498C00FFF75CFC044600F0A9FB0B4B13B120466F
:10499C00AFF3008000210848FFF7F4FDBDE8384074
:1049AC0006480021FFF77ABD00F40320A9480D004A
:1049BC001E1C279A78E603200000000031490D00E8
:1049CC00704710B51821044600F05FFB204610BD5F
:1049DC00F0B5037D062B8DB00E4600F104074FF0A9
:1049EC00000412D000F1080515F8011D0A2230460A
:1049FC00FFF709FFAF42044419D0002CF4D02E214C
:104A0C003046FFF7FDFE0444EEE72F236A46394695
:104A1C000A208DF80040FFF731FC684600F082FB5D
:104A2C0033680246DB6869463046984704462046A0
:104A3C000DB0F0BD10B5054B0446112240F8043BF7
:104A4C00002100F043FB204610BD00BFB8510D0003
:104A5C000346074A10B543F8042B01F1100251F834
:104A6C00044B43F8044B9142F9D10A781A7010BDEB
:104A7C00B8510D0010B59DF8084044EA032343EAF1
:104A8C00024242EA016104234160037510BD00003B
:104A9C0013B5054B0360CB7800938B784A78097873
:104AAC00FFF7E8FF02B010BDB8510D00417470471C
:104ABC00704708B50021007CFFF7C8FC40EAE070A5
:104ACC0008BD08B50121007CFFF7C0FC40EAE0708E
:104ADC0008BD08B5007CFFF7B1FC20EAE07008BD0A
:104AEC0008B5007CFFF7A2FC20EAE07008BD13B506
:104AFC000446007C0191FFF7A1FC0028019901DC20
:104B0C00607C20B1207CFFF7A9FC20EAE07002B0A9
:104B1C0010BD007CFFF7AABC10B51421044600F0B0
:104B2C00B4FA204610BD000010B54FF47A73044659
:104B3C0008460021C4E90113044B236001232074AF
:104B4C0063741146FFF76AFC204610BDCC510D0072
:104B5C0010B514220446002100F0B8FA204610BD0E
:104B6C0010B5104C88B003A8FFF7F2FF2178BFF303
:104B7C005B8F11F0010111D120460191FFF787FAEB
:104B8C00019958B103AA0848FFF7CEFF2046FFF75A
:104B9C0083FA064A0649044800F072FA024808B043
:104BAC0010BD00BF80E6032084E6032020E603202E
:104BBC00BD4A0D0070474174704708B5007CFFF783
:104BCC009DFB20EAE07008BD08B5007CFFF76EFB8A
:104BDC0020EAE07008BD08B5007CFFF777FB40EADF
:104BEC00E07008BD08B5007CFFF768FB40EAE07098
:104BFC0008BD007CFFF772BB37B5457C04462DB170
:104C0C00207C03B0BDE83040FFF748BB007C01912D
:104C1C00FFF774FB00280199F2DC284603B030BD85
:104C2C0010B51421044600F030FA204610BD0000E7
:104C3C0010B54FF0000C0446084611464FF47A723A
:104C4C00C4E901C2044A22600122207462741A462B
:104C5C00FFF71CFB204610BDFC510D0013B50E4C8C
:104C6C002178BFF35B8F11F0010112D12046019125
:104C7C00FFF70DFA019960B1084A094B0948FFF793
:104C8C00D7FF2046FFF708FA074A0849054800F005
:104C9C00F7F9044802B010BD98E603209CE6032007
:104CAC0020E70320A4E7032020E60320C14B0D00DE
:104CBC007047F8B5064615460C468F18BC4206D010
:104CCC00336814F8011B9B6830469847F6E7284672
:104CDC00F8BD007C0022FFF719BB007C0021FFF718
:104CEC001DBB007C0021FFF721BB007C0021FFF7DE
:104CFC0025BB007C0021FFF729BB10B5142104460D
:104D0C0000F0C3F9204610BD10B54FF47A73044679
:104D1C0008460021C4E90113034B2360207411469B
:104D2C00FFF724FB204610BD2C520D0000224068DA
:104D3C001146FFF7DFBB002240681146FFF7FABBB4
:104D4C00002240681146FFF705BC40680022FFF7BF
:104D5C00F9BB4068002281F00101FFF7E3BB00239F
:104D6C0040681A461946FFF7D5BB00224068114629
:104D7C00FFF7B0BB406800220221FFF7B3BB002352
:104D8C0040681A46FFF79EBB024B04225A60024A47
:104D9C001A607047B8E7032054520D000023406896
:104DAC001A46FFF78FBB406800220221FFF79ABB1F
:104DBC00002240681146FFF78DBB00224068114667
:104DCC00FFF798BB002340681A461946FFF79ABBB9
:104DDC00002340681A461946FFF79CBB4068002127
:104DEC00FFF7C0BB40680021FFF7C4BB406800223E
:104DFC0081F00101FFF796BB40680022FFF7A2BBD0
:104E0C00002240681146FFF7A5BB002240681146FE
:104E1C00FFF790BB2DE9F043002495B016460D46E4
:104E2C000746FFF707FE214618220EA8009400F053
:104E3C004DF94023CDE90C3421466B460CAA304683
:104E4C00FFF7D4F9044600284CD1024601216868CA
:104E5C00FFF750FB0221804622466868FFF74AFBA9
:104E6C00009E81462146002E3CD000293AD1736821
:104E7C00022B03D00A2B11D0F669F4E7B8F1000F1E
:104E8C000AD0716906A8043107ADFFF701FE0FCDFA
:104E9C003C1D0FC42B6823704146EDE7B9F1000FA0
:104EAC0001D14946E8E77469102201A800F00EF917
:104EBC0006238DF8143001AD04F10803183418687A
:104ECC0059682A4603C20833A3421546F7D101A9F3
:104EDC0006A807ADFFF7BCFD0FCD3C1D0FC42B681A
:104EEC002370DEE70098FFF779F9384615B0BDE876
:104EFC00F0830000024B034A1A6000225A6070478C
:104F0C00C0E7032090520D00232813B502D90020CE
:104F1C0002B010BDA0F10B03022B1AD8174C21784C
:104F2C00BFF35B8F11F001010BD120460191FFF70C
:104F3C00AEF8019928B11248FFF788FB2046FFF71D
:104F4C00ABF80F4B1878FFF731FA0028DFD10120AE
:104F5C00DEE7012809D800F06BF80021007CFFF790
:104F6C00FDF980F00100C0B2D2E709380128EED873
:104F7C00FFF774FE007CFFF7B9F9F2E7C8E70320EE
:104F8C00CCE70320232838B504460D460AD8FF2960
:104F9C0008D0FFF7B9FF28B129462046BDE83840B4
:104FAC00FFF72CB938BD38B504460D46FFF72EF97E
:104FBC00FF2810D0062804D84D2323FA00F0C3078D
:104FCC0009D42046FFF7A0FF28B129462046BDE8AA
:104FDC003840FFF723B938BD10B50446FFF716F972
:104FEC00031FDBB2012B08D92046FFF78DFF20B140
:104FFC002046BDE81040FFF719B9002010BD000095
:10500C0038B5002320254380142304460380856093
:10501C0005610649284600F03AF8044960602846C4
:10502C0000F035F8E060204638BD00BFC4520D00DA
:10503C0030B50F4D2978BFF35B8F11F0010487B0A9
:10504C0013D12846FFF723F878B101A8FFF7D8FF52
:10505C0001AA21460748FFF757FE2846FFF71CF820
:10506C00054A0649034800F00BF8024807B030BD6A
:10507C00D8E70320DCE7032020E60320BD4C0D001D
:10508C000B460146184600F005B8FEF7FEBFFEF7CA
:10509C00FABF000010B5054C13462CB10A46014668
:1050AC000220AFF3008010BD2046FCE7000000009A
:1050BC000A44914200F1FF3300D1704710B511F84A
:1050CC00014B03F8014F9142F9D110BD0244034644
:1050DC00934200D1704703F8011BF9E738B50D4B2B
:1050EC001D68AB6B04467BB91820FFF753FA0A4ACC
:1050FC000A4BA863C0E90023094B83600B2383810F
:10510C0001220023C0E90423AB6B00221C615A610D
:10511C0038BD00BFBCE503200E33CDAB34126DE6B9
:10512C00ECDE0500034613F8012B002AFBD1181AFC
:10513C00013870471D400D0059400D0081400D0095
:10514C0085400D0000000000000000000000000081
:10515C002F460D0025460D001B460D0011460D0077
:10516C0005460D00F9450D00E94D0D00F14D0D0002
:10517C00ED450D00E5450D00DB450D00D1450D005D
:10518C00214E0D006170700025592D256D2D256463
:10519C005425483A254D3A2553257A00617363749A
:1051AC00696D65000000000000000000DD490D0085
:1051BC00CD490D00CF490D0000000000000000009B
:1051CC00BD4A0D00254B0D00FB4A0D00BD470D00DF
:1051DC00ED4A0D00BF4A0D00CF4A0D001F4B0D00CC
:1051EC00DF4A0D00B94A0D0000000000000000006D
:1051FC00C14B0D002D4C0D00054C0D00BD470D0095
:10520C00D54B0D00F14B0D00E34B0D00FF4B0D008A
:10521C00C34B0D00C74B0D00000000000000000048
:10522C00BD4C0D00074D0D00DF4C0D00BF4C0D00AB
:10523C00E74C0D00EF4C0D00F74C0D00FF4C0D0032
:10524C0000000000000000008B4D0D00814D0D0092
:10525C00774D0D00394D0D004F480D006B4D0D0075
:10526C00E94D0D00F14D0D005F4D0D00574D0D003A
:10527C004D4D0D00434D0D00214E0D000000000062
:10528C0000000000A94D0D00B34D0D00BD4D0D00EB
:10529C00C74D0D00D14D0D00DD4D0D00E94D0D003C
:1052AC00F14D0D00F94D0D00054E0D000D4E0D008C
:1052BC00174E0D00214E0D0000000000AD410D00F9
:1052CC0039460D0035470D0095470D005D480D0022
:1052DC006D480D008D480D00954D0D00014F0D00D2
:0452EC0000000000BE
:0452F00000000000BA
:1052F400A8510D00C0E503200000000000000000DC
:105304000000000000000000000000000000000099
:105314000000000000000000000000000000000089
:105324000000000000000000000000000000000079
:105334000000000000000000000000000000000069
:105344000000000000000000000000000000000059
:08535400000000000000000051
:10535C00FFFFFFFF00000102030405060708090A0E
:10536C000B0C0D0E0F101112131415161718191A09
:08537C001B1C1D1E1F20280050
:045384007856341211
:04000003D000401CCD
:00000001FF
